{"abi":[{"type":"constructor","inputs":[],"stateMutability":"nonpayable"},{"type":"function","name":"DEFAULT_MAX_CREDENTIALS","inputs":[],"outputs":[{"name":"","type":"uint8","internalType":"uint8"}],"stateMutability":"view"},{"type":"function","name":"DEFAULT_RECOVERY_DELAY","inputs":[],"outputs":[{"name":"","type":"uint48","internalType":"uint48"}],"stateMutability":"view"},{"type":"function","name":"MODULE_ID","inputs":[],"outputs":[{"name":"","type":"bytes4","internalType":"bytes4"}],"stateMutability":"view"},{"type":"function","name":"accountBeacon","inputs":[],"outputs":[{"name":"beacon","type":"address","internalType":"address"}],"stateMutability":"view"},{"type":"function","name":"createAccount","inputs":[{"name":"orgId","type":"bytes32","internalType":"bytes32"},{"name":"credentialId","type":"bytes32","internalType":"bytes32"},{"name":"pubKeyX","type":"bytes32","internalType":"bytes32"},{"name":"pubKeyY","type":"bytes32","internalType":"bytes32"},{"name":"salt","type":"uint256","internalType":"uint256"}],"outputs":[{"name":"account","type":"address","internalType":"address"}],"stateMutability":"nonpayable"},{"type":"function","name":"executor","inputs":[],"outputs":[{"name":"","type":"address","internalType":"address"}],"stateMutability":"view"},{"type":"function","name":"getAddress","inputs":[{"name":"orgId","type":"bytes32","internalType":"bytes32"},{"name":"credentialId","type":"bytes32","internalType":"bytes32"},{"name":"pubKeyX","type":"bytes32","internalType":"bytes32"},{"name":"pubKeyY","type":"bytes32","internalType":"bytes32"},{"name":"salt","type":"uint256","internalType":"uint256"}],"outputs":[{"name":"account","type":"address","internalType":"address"}],"stateMutability":"view"},{"type":"function","name":"getMaxCredentialsPerOrg","inputs":[{"name":"orgId","type":"bytes32","internalType":"bytes32"}],"outputs":[{"name":"maxCredentials","type":"uint8","internalType":"uint8"}],"stateMutability":"view"},{"type":"function","name":"getOrgConfig","inputs":[{"name":"orgId","type":"bytes32","internalType":"bytes32"}],"outputs":[{"name":"config","type":"tuple","internalType":"struct PasskeyAccountFactory.OrgConfig","components":[{"name":"maxCredentialsPerAccount","type":"uint8","internalType":"uint8"},{"name":"defaultGuardian","type":"address","internalType":"address"},{"name":"recoveryDelay","type":"uint48","internalType":"uint48"},{"name":"enabled","type":"bool","internalType":"bool"}]}],"stateMutability":"view"},{"type":"function","name":"initialize","inputs":[{"name":"executor_","type":"address","internalType":"address"},{"name":"accountBeacon_","type":"address","internalType":"address"}],"outputs":[],"stateMutability":"nonpayable"},{"type":"function","name":"isDeployedAccount","inputs":[{"name":"account","type":"address","internalType":"address"}],"outputs":[{"name":"deployed","type":"bool","internalType":"bool"}],"stateMutability":"view"},{"type":"function","name":"registerOrg","inputs":[{"name":"orgId","type":"bytes32","internalType":"bytes32"},{"name":"maxCredentials","type":"uint8","internalType":"uint8"},{"name":"guardian","type":"address","internalType":"address"},{"name":"recoveryDelay","type":"uint48","internalType":"uint48"}],"outputs":[],"stateMutability":"nonpayable"},{"type":"function","name":"setExecutor","inputs":[{"name":"newExecutor","type":"address","internalType":"address"}],"outputs":[],"stateMutability":"nonpayable"},{"type":"function","name":"setOrgEnabled","inputs":[{"name":"orgId","type":"bytes32","internalType":"bytes32"},{"name":"enabled","type":"bool","internalType":"bool"}],"outputs":[],"stateMutability":"nonpayable"},{"type":"function","name":"updateOrgConfig","inputs":[{"name":"orgId","type":"bytes32","internalType":"bytes32"},{"name":"maxCredentials","type":"uint8","internalType":"uint8"},{"name":"guardian","type":"address","internalType":"address"},{"name":"recoveryDelay","type":"uint48","internalType":"uint48"}],"outputs":[],"stateMutability":"nonpayable"},{"type":"event","name":"AccountCreated","inputs":[{"name":"account","type":"address","indexed":true,"internalType":"address"},{"name":"orgId","type":"bytes32","indexed":true,"internalType":"bytes32"},{"name":"credentialId","type":"bytes32","indexed":false,"internalType":"bytes32"},{"name":"owner","type":"address","indexed":true,"internalType":"address"}],"anonymous":false},{"type":"event","name":"ExecutorUpdated","inputs":[{"name":"oldExecutor","type":"address","indexed":true,"internalType":"address"},{"name":"newExecutor","type":"address","indexed":true,"internalType":"address"}],"anonymous":false},{"type":"event","name":"Initialized","inputs":[{"name":"version","type":"uint64","indexed":false,"internalType":"uint64"}],"anonymous":false},{"type":"event","name":"OrgConfigUpdated","inputs":[{"name":"orgId","type":"bytes32","indexed":true,"internalType":"bytes32"}],"anonymous":false},{"type":"event","name":"OrgRegistered","inputs":[{"name":"orgId","type":"bytes32","indexed":true,"internalType":"bytes32"},{"name":"maxCredentials","type":"uint8","indexed":false,"internalType":"uint8"},{"name":"guardian","type":"address","indexed":false,"internalType":"address"},{"name":"recoveryDelay","type":"uint48","indexed":false,"internalType":"uint48"}],"anonymous":false},{"type":"error","name":"AccountExists","inputs":[]},{"type":"error","name":"BeaconNotSet","inputs":[]},{"type":"error","name":"InvalidInitialization","inputs":[]},{"type":"error","name":"NotInitializing","inputs":[]},{"type":"error","name":"OrgNotEnabled","inputs":[]},{"type":"error","name":"Unauthorized","inputs":[]},{"type":"error","name":"ZeroAddress","inputs":[]}],"bytecode":{"object":"0x60806040523461002757610011610036565b61001961002c565b61272a61025c823961272a90f35b610032565b60405190565b5f80fd5b61003e610132565b565b60401c90565b60ff1690565b61005861005d91610040565b610046565b90565b61006a905461004c565b90565b5f0190565b5f1c90565b60018060401b031690565b61008e61009391610072565b610077565b90565b6100a09054610082565b90565b60018060401b031690565b5f1b90565b906100c460018060401b03916100ae565b9181191691161790565b90565b6100e56100e06100ea926100a3565b6100ce565b6100a3565b90565b90565b9061010561010061010c926100d1565b6100ed565b82546100b3565b9055565b610119906100a3565b9052565b9190610130905f60208501940190610110565b565b61013a6101ea565b6101455f8201610060565b6101ce576101545f8201610096565b61016c61016660018060401b036100a3565b916100a3565b03610175575b50565b610188905f60018060401b0391016100f0565b60018060401b036101c57fc7f505b2f371ae2175ee4913f4499e1f2633a7b5936321eed1cdaeb6115181d2916101bc61002c565b9182918261011d565b0390a15f610172565b5f63f92ee8a960e01b8152806101e66004820161006d565b0390fd5b6101f2610247565b90565b5f90565b90565b90565b61021361020e610218926101f9565b6100ae565b6101fc565b90565b6102447ff0c57e16840df040f15088dc2f81fe391c3923bec73e23a9662efc9c229c6a006101ff565b90565b61024f6101f5565b5061025861021b565b9056fe60806040526004361015610013575b61088b565b61001d5f3561010c565b80630176689a1461010757806319ba08f9146101025780631a12c9d1146100fd5780631c3c0ea8146100f857806321830bf5146100f3578063461e08e4146100ee57806347fdacb0146100e9578063485cc955146100e45780634d6aa058146100df57806357ea33dd146100da5780638bc0ab75146100d5578063b43f6f3c146100d0578063c34c08e5146100cb578063ed2f21f5146100c65763fc5c20810361000e57610857565b6107d2565b61072c565b6106f7565b6106a0565b61060e565b6105d5565b6105a1565b61053b565b610488565b6103c7565b6102f3565b610278565b6101ff565b610168565b60e01c90565b60405190565b5f80fd5b5f80fd5b5f91031261012a57565b61011c565b60018060a01b031690565b6101439061012f565b90565b61014f9061013a565b9052565b9190610166905f60208501940190610146565b565b3461019857610178366004610120565b6101946101836108c4565b61018b610112565b91829182610153565b0390f35b610118565b90565b60ff1690565b90565b6101bd6101b86101c29261019d565b6101a6565b6101a0565b90565b6101cf60056101a9565b90565b6101da6101c5565b90565b6101e6906101a0565b9052565b91906101fd905f602085019401906101dd565b565b3461022f5761020f366004610120565b61022b61021a6101d2565b610222610112565b918291826101ea565b0390f35b610118565b90565b61024081610234565b0361024757565b5f80fd5b9050359061025882610237565b565b9060208282031261027357610270915f0161024b565b90565b61011c565b346102a8576102a461029361028e36600461025a565b610951565b61029b610112565b918291826101ea565b0390f35b610118565b6102b68161013a565b036102bd57565b5f80fd5b905035906102ce826102ad565b565b906020828203126102e9576102e6915f016102c1565b90565b61011c565b5f0190565b346103215761030b6103063660046102d0565b610b50565b610313610112565b8061031d816102ee565b0390f35b610118565b61032f906101a0565b9052565b61033c9061013a565b9052565b65ffffffffffff1690565b61035490610340565b9052565b151590565b61036690610358565b9052565b906060806103b0936103825f8201515f860190610326565b61039460208201516020860190610333565b6103a66040820151604086019061034b565b015191019061035d565b565b91906103c5905f6080850194019061036a565b565b346103f7576103f36103e26103dd36600461025a565b610d4d565b6103ea610112565b918291826103b2565b0390f35b610118565b610405816101a0565b0361040c57565b5f80fd5b9050359061041d826103fc565b565b61042881610340565b0361042f57565b5f80fd5b905035906104408261041f565b565b60808183031261048357610458825f830161024b565b926104806104698460208501610410565b9361047781604086016102c1565b93606001610433565b90565b61011c565b346104ba576104a461049b366004610442565b9291909161110f565b6104ac610112565b806104b6816102ee565b0390f35b610118565b90565b6104cb816104bf565b036104d257565b5f80fd5b905035906104e3826104c2565b565b919060a083820312610536576104fd815f850161024b565b9261050b826020830161024b565b9261053361051c846040850161024b565b9361052a816060860161024b565b936080016104d6565b90565b61011c565b3461056f5761056b61055a6105513660046104e5565b93929092611290565b610562610112565b91829182610153565b0390f35b610118565b919060408382031261059c5780610590610599925f86016102c1565b936020016102c1565b90565b61011c565b346105d0576105ba6105b4366004610574565b9061186a565b6105c2610112565b806105cc816102ee565b0390f35b610118565b34610609576106056105f46105eb3660046104e5565b939290926118c1565b6105fc610112565b91829182610153565b0390f35b610118565b346106405761062a610621366004610442565b92919091611b36565b610632610112565b8061063c816102ee565b0390f35b610118565b90565b61065c61065761066192610645565b6101a6565b610340565b90565b61067062093a80610648565b90565b61067b610664565b90565b61068790610340565b9052565b919061069e905f6020850194019061067e565b565b346106d0576106b0366004610120565b6106cc6106bb610673565b6106c3610112565b9182918261068b565b0390f35b610118565b6106de90610358565b9052565b91906106f5905f602085019401906106d5565b565b346107275761072361071261070d3660046102d0565b611b69565b61071a610112565b918291826106e2565b0390f35b610118565b3461075c5761073c366004610120565b610758610747611b91565b61074f610112565b91829182610153565b0390f35b610118565b63ffffffff60e01b1690565b61077690610761565b90565b6107a27f82da23c7ff6e2ce257dee836273bf72af382187589631ce71ae1388c8077793061076d565b90565b6107ad610779565b90565b6107b990610761565b9052565b91906107d0905f602085019401906107b0565b565b34610802576107e2366004610120565b6107fe6107ed6107a5565b6107f5610112565b918291826107bd565b0390f35b610118565b61081081610358565b0361081757565b5f80fd5b9050359061082882610807565b565b9190604083820312610852578061084661084f925f860161024b565b9360200161081b565b90565b61011c565b346108865761087061086a36600461082a565b90611c64565b610878610112565b80610882816102ee565b0390f35b610118565b5f80fd5b5f90565b5f1c90565b60018060a01b031690565b6108af6108b491610893565b610898565b90565b6108c190546108a3565b90565b6108cc61088f565b506108df5f6108d9611c70565b016108b7565b90565b5f90565b6108ef90610234565b90565b906108fc906108e6565b5f5260205260405f2090565b90565b60ff1690565b61091d61092291610893565b61090b565b90565b61092f9054610911565b90565b90565b61094961094461094e92610932565b6101a6565b6101a0565b90565b610971610976916109606108e2565b50600261096b611c70565b016108f2565b610908565b6109815f8201610925565b61099361098d5f610935565b916101a0565b115f146109a9575f6109a59101610925565b5b90565b506109b26101c5565b6109a6565b336109dc6109d66109d160016109cb611c70565b016108b7565b61013a565b9161013a565b036109ec576109ea90610aa6565b565b5f6282b42960e81b815280610a03600482016102ee565b0390fd5b610a1b610a16610a2092610932565b6101a6565b61012f565b90565b610a2c90610a07565b90565b5f1b90565b90610a4560018060a01b0391610a2f565b9181191691161790565b610a63610a5e610a689261012f565b6101a6565b61012f565b90565b610a7490610a4f565b90565b610a8090610a6b565b90565b90565b90610a9b610a96610aa292610a77565b610a83565b8254610a34565b9055565b80610ac1610abb610ab65f610a23565b61013a565b9161013a565b14610b3457610ace611c70565b610ae8610add600183016108b7565b916001849101610a86565b90610b1c610b167f0ef3c7eb9dbcf33ddf032f4cce366a07eda85eed03e3172e4a90c4cc16d5788693610a77565b91610a77565b91610b25610112565b80610b2f816102ee565b0390a3565b5f63d92e233d60e01b815280610b4c600482016102ee565b0390fd5b610b59906109b7565b565b601f801991011690565b634e487b7160e01b5f52604160045260245ffd5b90610b8390610b5b565b810190811067ffffffffffffffff821117610b9d57604052565b610b65565b90610bb5610bae610112565b9283610b79565b565b610bc16080610ba2565b90565b5f90565b5f90565b5f90565b5f90565b610bdc610bb7565b90602080808085610beb610bc4565b815201610bf6610bc8565b815201610c01610bcc565b815201610c0c610bd0565b81525050565b610c1a610bd4565b90565b90610c27906101a0565b9052565b60081c90565b610c3d610c4291610c2b565b610898565b90565b610c4f9054610c31565b90565b90610c5c9061013a565b9052565b60a81c90565b65ffffffffffff1690565b610c7d610c8291610c60565b610c66565b90565b610c8f9054610c71565b90565b90610c9c90610340565b9052565b60d81c90565b60ff1690565b610cb8610cbd91610ca0565b610ca6565b90565b610cca9054610cac565b90565b90610cd790610358565b9052565b90610d3f610d365f610ceb610bb7565b94610d02610cfa838301610925565b838801610c1d565b610d19610d10838301610c45565b60208801610c52565b610d30610d27838301610c85565b60408801610c92565b01610cc0565b60608401610ccd565b565b610d4a90610cdb565b90565b610d6d610d7291610d5c610c12565b506002610d67611c70565b016108f2565b610d41565b90565b92919033610d9d610d97610d926001610d8c611c70565b016108b7565b61013a565b9161013a565b03610dad57610dab9361100e565b565b5f6282b42960e81b815280610dc4600482016102ee565b0390fd5b610ddc610dd7610de192610932565b6101a6565b610340565b90565b610dee6080610ba2565b90565b610dfb90516101a0565b90565b90610e0a60ff91610a2f565b9181191691161790565b610e28610e23610e2d926101a0565b6101a6565b6101a0565b90565b90565b90610e48610e43610e4f92610e14565b610e30565b8254610dfe565b9055565b610e5d905161013a565b90565b60081b90565b90610e79610100600160a81b0391610e60565b9181191691161790565b90610e98610e93610e9f92610a77565b610a83565b8254610e66565b9055565b610ead9051610340565b90565b60a81b90565b90610eca65ffffffffffff60a81b91610eb0565b9181191691161790565b610ee8610ee3610eed92610340565b6101a6565b610340565b90565b90565b90610f08610f03610f0f92610ed4565b610ef0565b8254610eb6565b9055565b610f1d9051610358565b90565b60d81b90565b90610f3560ff60d81b91610f20565b9181191691161790565b610f4890610358565b90565b90565b90610f63610f5e610f6a92610f3f565b610f4b565b8254610f26565b9055565b90610fc860605f610fce94610f90828201610f8a848801610df1565b90610e33565b610fa8828201610fa260208801610e53565b90610e83565b610fc0828201610fba60408801610ea3565b90610ef3565b019201610f13565b90610f4e565b565b90610fda91610f6e565b565b60409061100561100c9496959396610ffb60608401985f8501906101dd565b6020830190610146565b019061067e565b565b929091926110a461101d611c70565b8461103061102a5f610935565b916101a0565b115f146110fc5761109f600286925b61109789886110566110505f610dc8565b91610340565b115f146110ec5761108e895b61108560019361107c611073610de4565b9a5f8c01610c1d565b60208a01610c52565b60408801610c92565b60608601610ccd565b0184906108f2565b610fd0565b919290926110e76110d57f2d92372c97dfbf9da506c39902f846633b2c98f9c91c8b2a75899a378e91f31a946108e6565b946110de610112565b93849384610fdc565b0390a2565b61108e6110f7610664565b611062565b61109f60026111096101c5565b9261103f565b9061111b939291610d75565b565b61113161112c61113692610932565b6101a6565b6104bf565b90565b61114290610a6b565b90565b61114e90610234565b9052565b949290979695939160e08601985f870161116b91610146565b6020860161117891611145565b6040850161118591611145565b6060840161119291611145565b6080830161119f91611145565b60a082016111ac91610146565b60c0016111b89161067e565b565b5190565b60209181520190565b90825f9392825e0152565b6111f16111fa6020936111ff936111e8816111ba565b938480936111be565b958691016111c7565b610b5b565b0190565b916112269261121960408201935f830190610146565b60208184039101526111d2565b90565b611231610112565b3d5f823e3d90fd5b61124290610a6b565b90565b9061124f90610a77565b5f5260205260405f2090565b9061127061126b61127792610f3f565b610f4b565b8254610dfe565b9055565b919061128e905f60208501940190611145565b565b9194939492909261129f61088f565b506112a8611c70565b956112bf6112ba6002890186906108f2565b610908565b6112d36112cd5f8301610cc0565b15610358565b611495576112e25f89016108b7565b6112fc6112f66112f15f610a23565b61013a565b9161013a565b1461147957611310858785879186936118c1565b803b61132461131e5f61111d565b916104bf565b1161146d575090600461138f61139c9493611380630d7a5b3960e01b9161134a30611139565b908b888b908d926113675f611360818801610c45565b9601610c85565b95611370610112565b9a8b9960208b0190815201611152565b60208201810382520382610b79565b9385928790919293611d0e565b906113a85f87016108b7565b6113b0610112565b916108f583019083821067ffffffffffffffff8311176114685783926113dd926108f5611e298639611203565b03905ff58015611463576113f361140991611239565b946114046003600192018790611245565b61125b565b8390339161145e61144c6114466114407f56c1ee82ba041b237dc43cab9ce0a675e2ce20b92019425a8bccc797987ec05c94610a77565b946108e6565b94610a77565b94611455610112565b9182918261127b565b0390a4565b611229565b610b65565b96975050505050505090565b5f63773aae1f60e11b815280611491600482016102ee565b0390fd5b5f63b799d53b60e01b8152806114ad600482016102ee565b0390fd5b60401c90565b6114c36114c8916114b1565b610ca6565b90565b6114d590546114b7565b90565b67ffffffffffffffff1690565b6114f16114f691610893565b6114d8565b90565b61150390546114e5565b90565b67ffffffffffffffff1690565b61152761152261152c92610932565b6101a6565b611506565b90565b90565b61154661154161154b9261152f565b6101a6565b611506565b90565b61155790610a6b565b90565b9061156d67ffffffffffffffff91610a2f565b9181191691161790565b61158b61158661159092611506565b6101a6565b611506565b90565b90565b906115ab6115a66115b292611577565b611593565b825461155a565b9055565b60401b90565b906115d068ff0000000000000000916115b6565b9181191691161790565b906115ef6115ea6115f692610f3f565b610f4b565b82546115bc565b9055565b61160390611532565b9052565b919061161a905f602085019401906115fa565b565b90611625611d60565b9161163a6116345f85016114cb565b15610358565b916116465f85016114f9565b806116596116535f611513565b91611506565b1480611773575b9061167461166e6001611532565b91611506565b148061174b575b611686909115610358565b908161173a575b5061171e576116b6916116ab6116a36001611532565b5f8701611596565b8361170c575b61177a565b6116be575b50565b6116cb905f8091016115da565b60016117037fc7f505b2f371ae2175ee4913f4499e1f2633a7b5936321eed1cdaeb6115181d2916116fa610112565b91829182611607565b0390a15f6116bb565b61171960015f87016115da565b6116b1565b5f63f92ee8a960e01b815280611736600482016102ee565b0390fd5b611745915015610358565b5f61168d565b506116866117583061154e565b3b61176b6117655f61111d565b916104bf565b14905061167b565b5083611660565b908161179661179061178b5f610a23565b61013a565b9161013a565b1461184e57806117b66117b06117ab5f610a23565b61013a565b9161013a565b14611832576117dd905f6117c8611c70565b916117d68560018501610a86565b9101610a86565b6117e65f610a23565b9061181a6118147f0ef3c7eb9dbcf33ddf032f4cce366a07eda85eed03e3172e4a90c4cc16d5788693610a77565b91610a77565b91611823610112565b8061182d816102ee565b0390a3565b5f63d92e233d60e01b81528061184a600482016102ee565b0390fd5b5f63d92e233d60e01b815280611866600482016102ee565b0390fd5b906118749161161c565b565b905090565b6118a06118979260209261188e816111ba565b94858093611876565b938491016111c7565b0190565b6118b2906118b8939261187b565b9061187b565b90565b60200190565b92936119f0946119d6936118d361088f565b506118dc611c70565b6119cb60046119556118fa6118f5600286018c906108f2565b610908565b611946630d7a5b3960e01b9161190f30611139565b908d8c908a8c919261192d5f611926818801610c45565b9601610c85565b95611936610112565b9a8b9960208b0190815201611152565b60208201810382520382610b79565b916119a561197f5f6108f59361196d60208601610ba2565b94808652611e296020870139016108b7565b61199661198a610112565b95869260208401611203565b60208201810382520384610b79565b6119bc6119b0610112565b938492602084016118a4565b60208201810382520382610b79565b959390919293611d0e565b906119e96119e3826111ba565b916118bb565b2090611d77565b90565b92919033611a1b611a15611a106001611a0a611c70565b016108b7565b61013a565b9161013a565b03611a2b57611a2993611a46565b565b5f6282b42960e81b815280611a42600482016102ee565b0390fd5b9291611a65611a606002611a58611c70565b0186906108f2565b610908565b9180611a79611a735f610935565b916101a0565b11611b24575b5080611a9b611a95611a905f610a23565b61013a565b9161013a565b03611b12575b5081611ab5611aaf5f610dc8565b91610340565b11611aff575b5050611ae77f98d6cee1aa7755d4803962de3e8e7281ed6e9584dd0c19b22967457196e19efe916108e6565b90611af0610112565b80611afa816102ee565b0390a2565b5f611b0b929101610ef3565b5f80611abb565b611b1e905f8301610e83565b5f611aa1565b611b30905f8401610e33565b5f611a7f565b90611b429392916119f3565b565b5f90565b611b54611b5991610893565b610ca6565b90565b611b669054611b48565b90565b611b89611b8e91611b78611b44565b506003611b83611c70565b01611245565b611b5c565b90565b611b9961088f565b50611bad6001611ba7611c70565b016108b7565b90565b9033611bd6611bd0611bcb6001611bc5611c70565b016108b7565b61013a565b9161013a565b03611be657611be491611c01565b565b5f6282b42960e81b815280611bfd600482016102ee565b0390fd5b90611c22905f611c1c6002611c14611c70565b0185906108f2565b01610f4e565b611c4c7f98d6cee1aa7755d4803962de3e8e7281ed6e9584dd0c19b22967457196e19efe916108e6565b90611c55610112565b80611c5f816102ee565b0390a2565b90611c6e91611bb0565b565b7f827e9908968f666e42b67f932c7b1de44a3c55e267a1f6ed05a8d68576716a2590565b5f90565b90565b611ca7611cac91610234565b611c98565b9052565b90565b611cbf611cc4916104bf565b611cb0565b9052565b6020611d0a94611cfa828099989596611cf28287611cea611d0299839c611c9b565b018092611c9b565b018092611c9b565b018092611c9b565b018092611cb3565b0190565b92611d3b919294611d4a94611d21611c94565b509395919091611d2f610112565b96879560208701611cc8565b60208201810382520382610b79565b611d5c611d56826111ba565b916118bb565b2090565b611d68611de3565b90565b611d7490610a6b565b90565b90611d9591611d8461088f565b5090611d8f30611d6b565b91611df7565b90565b90565b611daf611daa611db492611d98565b610a2f565b610234565b90565b611de07ff0c57e16840df040f15088dc2f81fe391c3923bec73e23a9662efc9c229c6a00611d9b565b90565b611deb611c94565b50611df4611db7565b90565b91600b92611e0361088f565b50604051926040840152602083015281520160ff8153605560018060a01b039120169056fe60a060405261001561000f6101a6565b906101c8565b61001d610034565b6102156106e08239608051816101e6015261021590f35b60405190565b601f801991011690565b634e487b7160e01b5f52604160045260245ffd5b906100629061003a565b810190811060018060401b0382111761007a57604052565b610044565b9061009261008b610034565b9283610058565b565b5f80fd5b5f80fd5b60018060a01b031690565b6100b09061009c565b90565b6100bc816100a7565b036100c357565b5f80fd5b905051906100d4826100b3565b565b5f80fd5b5f80fd5b60018060401b0381116100fa576100f660209161003a565b0190565b610044565b90825f9392825e0152565b9092919261011f61011a826100de565b61007f565b9381855260208501908284011161013b57610139926100ff565b565b6100da565b9080601f8301121561015e5781602061015b9351910161010a565b90565b6100d6565b9190916040818403126101a15761017c835f83016100c7565b92602082015160018060401b03811161019c576101999201610140565b90565b610098565b610094565b6101c46108f5803803806101b98161007f565b928339810190610163565b9091565b906101d39082610292565b608052565b90565b6101ef6101ea6101f49261009c565b6101d8565b61009c565b90565b610200906101db565b90565b61020c906101f7565b90565b5f0190565b5190565b90565b90565b61023261022d6102379261021b565b6101d8565b610218565b90565b610243906101db565b90565b61024f9061023a565b90565b61025b906101f7565b90565b60e01b90565b9060208282031261027d5761027a915f016100c7565b90565b610094565b61028a610034565b3d5f823e3d90fd5b9061029c82610453565b816102c77f1cf3b03a6cf19fa2baba4df148e9dcabedea7f8a5c07840e207e5c089be95d3e91610203565b906102d0610034565b806102da8161020f565b0390a26102e681610214565b6102f86102f25f61021e565b91610218565b115f1461039157602061031561031061032b94610246565b610252565b635c60da1b90610323610034565b94859261025e565b8252818061033b6004820161020f565b03915afa90811561038c57610358925f9261035c575b50906105de565b505b565b61037e91925060203d8111610385575b6103768183610058565b810190610264565b905f610351565b503d61036c565b610282565b505061039b610563565b61035a565b6103a9906100a7565b9052565b91906103c0905f602085019401906103a0565b565b90565b90565b5f1b90565b6103e16103dc6103e6926103c2565b6103c8565b6103c5565b90565b6104127fa3f0ad74e5423aebfd80d3ef4346578335a9a72aeaee59ff6cb3582b35133d506103cd565b90565b9061042660018060a01b03916103c8565b9181191691161790565b90565b9061044861044361044f92610203565b610430565b8254610415565b9055565b803b6104676104615f61021e565b91610218565b1461054457602061049d610498836104936104b3955f61048d6104886103e9565b61060d565b01610433565b610246565b610252565b635c60da1b906104ab610034565b93849261025e565b825281806104c36004820161020f565b03915afa90811561053f575f91610511575b50803b6104ea6104e45f61021e565b91610218565b146104f25750565b61050d905f918291634c9c8ce360e01b8352600483016103ad565b0390fd5b610532915060203d8111610538575b61052a8183610058565b810190610264565b5f6104d5565b503d610520565b610282565b61055f905f918291631933b43b60e21b8352600483016103ad565b0390fd5b346105766105705f61021e565b91610218565b1161057d57565b5f63b398979f60e01b8152806105956004820161020f565b0390fd5b606090565b906105b06105ab836100de565b61007f565b918252565b3d5f146105d0576105c53d61059e565b903d5f602084013e5b565b6105d8610599565b906105ce565b5f8061060a936105ec610599565b508390602081019051915af4906106016105b5565b90919091610615565b90565b90565b151590565b9061062990610622610599565b5015610610565b5f146106355750610699565b61063e82610214565b61065061064a5f61021e565b91610218565b148061067e575b61065f575090565b61067a905f918291639996b31560e01b8352600483016103ad565b0390fd5b50803b61069361068d5f61021e565b91610218565b14610657565b6106a281610214565b6106b46106ae5f61021e565b91610218565b115f146106c357602081519101fd5b5f63d6bda27560e01b8152806106db6004820161020f565b0390fdfe608060405261000c610128565b6101bd565b5f90565b60018060a01b031690565b90565b61003761003261003c92610015565b610020565b610015565b90565b61004890610023565b90565b6100549061003f565b90565b61006090610023565b90565b61006c90610057565b90565b60405190565b601f801991011690565b634e487b7160e01b5f52604160045260245ffd5b9061009d90610075565b810190811067ffffffffffffffff8211176100b757604052565b61007f565b60e01b90565b5f80fd5b6100cf90610015565b90565b6100db816100c6565b036100e257565b5f80fd5b905051906100f3826100d2565b565b9060208282031261010e5761010b915f016100e6565b90565b6100c2565b5f0190565b61012061006f565b3d5f823e3d90fd5b610130610011565b50610164602061014e6101496101446101db565b61004b565b610063565b635c60da1b9061015c61006f565b9384926100bc565b8252818061017460048201610113565b03915afa9081156101b8575f9161018a575b5090565b6101ab915060203d81116101b1575b6101a38183610093565b8101906100f5565b5f610186565b503d610199565b610118565b5f8091368280378136915af43d5f803e5f146101d7573d5ff35b3d5ffd5b6101e3610011565b507f00000000000000000000000000000000000000000000000000000000000000009056fea164736f6c634300081e000aa164736f6c634300081e000a","linkReferences":{}},"methodIdentifiers":{"DEFAULT_MAX_CREDENTIALS()":"19ba08f9","DEFAULT_RECOVERY_DELAY()":"8bc0ab75","MODULE_ID()":"ed2f21f5","accountBeacon()":"0176689a","createAccount(bytes32,bytes32,bytes32,bytes32,uint256)":"47fdacb0","executor()":"c34c08e5","getAddress(bytes32,bytes32,bytes32,bytes32,uint256)":"4d6aa058","getMaxCredentialsPerOrg(bytes32)":"1a12c9d1","getOrgConfig(bytes32)":"21830bf5","initialize(address,address)":"485cc955","isDeployedAccount(address)":"b43f6f3c","registerOrg(bytes32,uint8,address,uint48)":"461e08e4","setExecutor(address)":"1c3c0ea8","setOrgEnabled(bytes32,bool)":"fc5c2081","updateOrgConfig(bytes32,uint8,address,uint48)":"57ea33dd"},"id":52}