{"abi":[{"type":"constructor","inputs":[],"stateMutability":"nonpayable"},{"type":"receive","stateMutability":"payable"},{"type":"function","name":"ENTRY_POINT","inputs":[],"outputs":[{"name":"","type":"address","internalType":"address"}],"stateMutability":"view"},{"type":"function","name":"MODULE_ID","inputs":[],"outputs":[{"name":"","type":"bytes4","internalType":"bytes4"}],"stateMutability":"view"},{"type":"function","name":"addCredential","inputs":[{"name":"credentialId","type":"bytes32","internalType":"bytes32"},{"name":"pubKeyX","type":"bytes32","internalType":"bytes32"},{"name":"pubKeyY","type":"bytes32","internalType":"bytes32"},{"name":"orgId","type":"bytes32","internalType":"bytes32"}],"outputs":[],"stateMutability":"nonpayable"},{"type":"function","name":"cancelRecovery","inputs":[{"name":"recoveryId","type":"bytes32","internalType":"bytes32"}],"outputs":[],"stateMutability":"nonpayable"},{"type":"function","name":"completeRecovery","inputs":[{"name":"recoveryId","type":"bytes32","internalType":"bytes32"}],"outputs":[],"stateMutability":"nonpayable"},{"type":"function","name":"execute","inputs":[{"name":"target","type":"address","internalType":"address"},{"name":"value","type":"uint256","internalType":"uint256"},{"name":"data","type":"bytes","internalType":"bytes"}],"outputs":[{"name":"result","type":"bytes","internalType":"bytes"}],"stateMutability":"nonpayable"},{"type":"function","name":"executeBatch","inputs":[{"name":"targets","type":"address[]","internalType":"address[]"},{"name":"values","type":"uint256[]","internalType":"uint256[]"},{"name":"datas","type":"bytes[]","internalType":"bytes[]"}],"outputs":[],"stateMutability":"nonpayable"},{"type":"function","name":"factory","inputs":[],"outputs":[{"name":"","type":"address","internalType":"address"}],"stateMutability":"view"},{"type":"function","name":"getCredential","inputs":[{"name":"credentialId","type":"bytes32","internalType":"bytes32"}],"outputs":[{"name":"credential","type":"tuple","internalType":"struct IPasskeyAccount.PasskeyCredential","components":[{"name":"publicKeyX","type":"bytes32","internalType":"bytes32"},{"name":"publicKeyY","type":"bytes32","internalType":"bytes32"},{"name":"createdAt","type":"uint64","internalType":"uint64"},{"name":"signCount","type":"uint32","internalType":"uint32"},{"name":"orgId","type":"bytes32","internalType":"bytes32"},{"name":"active","type":"bool","internalType":"bool"}]}],"stateMutability":"view"},{"type":"function","name":"getCredentialIds","inputs":[],"outputs":[{"name":"","type":"bytes32[]","internalType":"bytes32[]"}],"stateMutability":"view"},{"type":"function","name":"getOrgCredentialCount","inputs":[{"name":"orgId","type":"bytes32","internalType":"bytes32"}],"outputs":[{"name":"","type":"uint8","internalType":"uint8"}],"stateMutability":"view"},{"type":"function","name":"getRecoveryRequest","inputs":[{"name":"recoveryId","type":"bytes32","internalType":"bytes32"}],"outputs":[{"name":"","type":"tuple","internalType":"struct IPasskeyAccount.RecoveryRequest","components":[{"name":"credentialId","type":"bytes32","internalType":"bytes32"},{"name":"pubKeyX","type":"bytes32","internalType":"bytes32"},{"name":"pubKeyY","type":"bytes32","internalType":"bytes32"},{"name":"executeAfter","type":"uint48","internalType":"uint48"},{"name":"cancelled","type":"bool","internalType":"bool"}]}],"stateMutability":"view"},{"type":"function","name":"guardian","inputs":[],"outputs":[{"name":"","type":"address","internalType":"address"}],"stateMutability":"view"},{"type":"function","name":"initialize","inputs":[{"name":"factory_","type":"address","internalType":"address"},{"name":"credentialId","type":"bytes32","internalType":"bytes32"},{"name":"pubKeyX","type":"bytes32","internalType":"bytes32"},{"name":"pubKeyY","type":"bytes32","internalType":"bytes32"},{"name":"orgId","type":"bytes32","internalType":"bytes32"},{"name":"guardian_","type":"address","internalType":"address"},{"name":"recoveryDelay_","type":"uint48","internalType":"uint48"}],"outputs":[],"stateMutability":"nonpayable"},{"type":"function","name":"initiateRecovery","inputs":[{"name":"credentialId","type":"bytes32","internalType":"bytes32"},{"name":"pubKeyX","type":"bytes32","internalType":"bytes32"},{"name":"pubKeyY","type":"bytes32","internalType":"bytes32"}],"outputs":[],"stateMutability":"nonpayable"},{"type":"function","name":"recoveryDelay","inputs":[],"outputs":[{"name":"","type":"uint48","internalType":"uint48"}],"stateMutability":"view"},{"type":"function","name":"removeCredential","inputs":[{"name":"credentialId","type":"bytes32","internalType":"bytes32"}],"outputs":[],"stateMutability":"nonpayable"},{"type":"function","name":"setCredentialActive","inputs":[{"name":"credentialId","type":"bytes32","internalType":"bytes32"},{"name":"active","type":"bool","internalType":"bool"}],"outputs":[],"stateMutability":"nonpayable"},{"type":"function","name":"setGuardian","inputs":[{"name":"newGuardian","type":"address","internalType":"address"}],"outputs":[],"stateMutability":"nonpayable"},{"type":"function","name":"setRecoveryDelay","inputs":[{"name":"newDelay","type":"uint48","internalType":"uint48"}],"outputs":[],"stateMutability":"nonpayable"},{"type":"function","name":"validateUserOp","inputs":[{"name":"userOp","type":"tuple","internalType":"struct PackedUserOperation","components":[{"name":"sender","type":"address","internalType":"address"},{"name":"nonce","type":"uint256","internalType":"uint256"},{"name":"initCode","type":"bytes","internalType":"bytes"},{"name":"callData","type":"bytes","internalType":"bytes"},{"name":"accountGasLimits","type":"bytes32","internalType":"bytes32"},{"name":"preVerificationGas","type":"uint256","internalType":"uint256"},{"name":"maxFeePerGas","type":"uint256","internalType":"uint256"},{"name":"maxPriorityFeePerGas","type":"uint256","internalType":"uint256"},{"name":"paymasterAndData","type":"bytes","internalType":"bytes"},{"name":"signature","type":"bytes","internalType":"bytes"}]},{"name":"userOpHash","type":"bytes32","internalType":"bytes32"},{"name":"missingAccountFunds","type":"uint256","internalType":"uint256"}],"outputs":[{"name":"validationData","type":"uint256","internalType":"uint256"}],"stateMutability":"nonpayable"},{"type":"event","name":"BatchExecuted","inputs":[{"name":"count","type":"uint256","indexed":false,"internalType":"uint256"}],"anonymous":false},{"type":"event","name":"CredentialAdded","inputs":[{"name":"credentialId","type":"bytes32","indexed":true,"internalType":"bytes32"},{"name":"orgId","type":"bytes32","indexed":false,"internalType":"bytes32"},{"name":"createdAt","type":"uint64","indexed":false,"internalType":"uint64"}],"anonymous":false},{"type":"event","name":"CredentialRemoved","inputs":[{"name":"credentialId","type":"bytes32","indexed":true,"internalType":"bytes32"}],"anonymous":false},{"type":"event","name":"CredentialStatusChanged","inputs":[{"name":"credentialId","type":"bytes32","indexed":true,"internalType":"bytes32"},{"name":"active","type":"bool","indexed":false,"internalType":"bool"}],"anonymous":false},{"type":"event","name":"Executed","inputs":[{"name":"target","type":"address","indexed":true,"internalType":"address"},{"name":"value","type":"uint256","indexed":false,"internalType":"uint256"},{"name":"data","type":"bytes","indexed":false,"internalType":"bytes"},{"name":"result","type":"bytes","indexed":false,"internalType":"bytes"}],"anonymous":false},{"type":"event","name":"GuardianUpdated","inputs":[{"name":"oldGuardian","type":"address","indexed":true,"internalType":"address"},{"name":"newGuardian","type":"address","indexed":true,"internalType":"address"}],"anonymous":false},{"type":"event","name":"Initialized","inputs":[{"name":"version","type":"uint64","indexed":false,"internalType":"uint64"}],"anonymous":false},{"type":"event","name":"RecoveryCancelled","inputs":[{"name":"recoveryId","type":"bytes32","indexed":true,"internalType":"bytes32"}],"anonymous":false},{"type":"event","name":"RecoveryCompleted","inputs":[{"name":"recoveryId","type":"bytes32","indexed":true,"internalType":"bytes32"},{"name":"credentialId","type":"bytes32","indexed":true,"internalType":"bytes32"}],"anonymous":false},{"type":"event","name":"RecoveryDelayUpdated","inputs":[{"name":"oldDelay","type":"uint48","indexed":false,"internalType":"uint48"},{"name":"newDelay","type":"uint48","indexed":false,"internalType":"uint48"}],"anonymous":false},{"type":"event","name":"RecoveryInitiated","inputs":[{"name":"recoveryId","type":"bytes32","indexed":true,"internalType":"bytes32"},{"name":"credentialId","type":"bytes32","indexed":false,"internalType":"bytes32"},{"name":"initiator","type":"address","indexed":true,"internalType":"address"},{"name":"executeAfter","type":"uint48","indexed":false,"internalType":"uint48"}],"anonymous":false},{"type":"error","name":"ArrayLengthMismatch","inputs":[]},{"type":"error","name":"CannotRemoveLastCredential","inputs":[]},{"type":"error","name":"CredentialExists","inputs":[]},{"type":"error","name":"CredentialNotActive","inputs":[]},{"type":"error","name":"CredentialNotFound","inputs":[]},{"type":"error","name":"ExecutionFailed","inputs":[]},{"type":"error","name":"InvalidInitialization","inputs":[]},{"type":"error","name":"InvalidSignature","inputs":[]},{"type":"error","name":"MaxCredentialsReached","inputs":[]},{"type":"error","name":"NotInitializing","inputs":[]},{"type":"error","name":"OnlyEntryPoint","inputs":[]},{"type":"error","name":"OnlyGuardian","inputs":[]},{"type":"error","name":"OnlyGuardianOrSelf","inputs":[]},{"type":"error","name":"OnlySelf","inputs":[]},{"type":"error","name":"RecoveryAlreadyPending","inputs":[]},{"type":"error","name":"RecoveryDelayNotPassed","inputs":[]},{"type":"error","name":"RecoveryNotPending","inputs":[]},{"type":"error","name":"ZeroAddress","inputs":[]}],"bytecode":{"object":"0x60806040523461002757610011610036565b61001961002c565b614e4361025c8239614e4390f35b610032565b60405190565b5f80fd5b61003e610132565b565b60401c90565b60ff1690565b61005861005d91610040565b610046565b90565b61006a905461004c565b90565b5f0190565b5f1c90565b60018060401b031690565b61008e61009391610072565b610077565b90565b6100a09054610082565b90565b60018060401b031690565b5f1b90565b906100c460018060401b03916100ae565b9181191691161790565b90565b6100e56100e06100ea926100a3565b6100ce565b6100a3565b90565b90565b9061010561010061010c926100d1565b6100ed565b82546100b3565b9055565b610119906100a3565b9052565b9190610130905f60208501940190610110565b565b61013a6101ea565b6101455f8201610060565b6101ce576101545f8201610096565b61016c61016660018060401b036100a3565b916100a3565b03610175575b50565b610188905f60018060401b0391016100f0565b60018060401b036101c57fc7f505b2f371ae2175ee4913f4499e1f2633a7b5936321eed1cdaeb6115181d2916101bc61002c565b9182918261011d565b0390a15f610172565b5f63f92ee8a960e01b8152806101e66004820161006d565b0390fd5b6101f2610247565b90565b5f90565b90565b90565b61021361020e610218926101f9565b6100ae565b6101fc565b90565b6102447ff0c57e16840df040f15088dc2f81fe391c3923bec73e23a9662efc9c229c6a006101ff565b90565b61024f6101f5565b5061025861021b565b9056fe60806040526004361015610015575b36610df757005b61001f5f3561016e565b80630d7a5b39146101695780631272c596146101645780633758ca7a1461015f5780633d8d7b0b1461015a578063452a93201461015557806347e1da2a146101505780635bf526cb1461014b5780635ea3ec7614610146578063631fec7f146101415780638803e4511461013c5780638a0dac4a1461013757806394430fa514610132578063b61d27f61461012d578063c45a015514610128578063caa3241714610123578063d0c8a7921461011e578063d1be488314610119578063d6d484a714610114578063e6636f3f1461010f578063ed2f21f51461010a5763f6f530560361000e57610dc2565b610d65565b610cbf565b610bf9565b610b8a565b610aa6565b610a6f565b6109f4565b6109bb565b61088a565b610838565b6107e4565b6106ff565b6106ca565b610600565b610571565b6103ed565b610398565b610345565b6102e1565b610289565b60e01c90565b60405190565b5f80fd5b5f80fd5b5f80fd5b60018060a01b031690565b61019a90610186565b90565b6101a681610191565b036101ad57565b5f80fd5b905035906101be8261019d565b565b90565b6101cc816101c0565b036101d357565b5f80fd5b905035906101e4826101c3565b565b65ffffffffffff1690565b6101fa816101e6565b0361020157565b5f80fd5b90503590610212826101f1565b565b60e08183031261027f5761022a825f83016101b1565b9261023883602084016101d7565b9261024681604085016101d7565b9261025482606083016101d7565b9261027c61026584608085016101d7565b936102738160a086016101b1565b9360c001610205565b90565b61017e565b5f0190565b346102be576102a861029c366004610214565b959490949391936118f9565b6102b0610174565b806102ba81610284565b0390f35b61017a565b906020828203126102dc576102d9915f016101d7565b90565b61017e565b3461030f576102f96102f43660046102c3565b611a0d565b610301610174565b8061030b81610284565b0390f35b61017a565b5f91031261031e57565b61017e565b61032c906101e6565b9052565b9190610343905f60208501940190610323565b565b3461037557610355366004610314565b610371610360611c76565b610368610174565b91829182610330565b0390f35b61017a565b9060208282031261039357610390915f01610205565b90565b61017e565b346103c6576103b06103ab36600461037a565b611da6565b6103b8610174565b806103c281610284565b0390f35b61017a565b6103d490610191565b9052565b91906103eb905f602085019401906103cb565b565b3461041d576103fd366004610314565b610419610408611de1565b610410610174565b918291826103d8565b0390f35b61017a565b5f80fd5b5f80fd5b5f80fd5b909182601f830112156104685781359167ffffffffffffffff831161046357602001926020830284011161045e57565b61042a565b610426565b610422565b909182601f830112156104a75781359167ffffffffffffffff83116104a257602001926020830284011161049d57565b61042a565b610426565b610422565b909182601f830112156104e65781359167ffffffffffffffff83116104e15760200192602083028401116104dc57565b61042a565b610426565b610422565b9060608282031261056c575f82013567ffffffffffffffff8111610567578161051591840161042e565b929093602082013567ffffffffffffffff8111610562578361053891840161046d565b929093604082013567ffffffffffffffff811161055d5761055992016104ac565b9091565b610182565b610182565b610182565b61017e565b346105a6576105906105843660046104eb565b94939093929192611f73565b610598610174565b806105a281610284565b0390f35b61017a565b151590565b6105b9816105ab565b036105c057565b5f80fd5b905035906105d1826105b0565b565b91906040838203126105fb57806105ef6105f8925f86016101d7565b936020016105c4565b90565b61017e565b3461062f576106196106133660046105d3565b9061226b565b610621610174565b8061062b81610284565b0390f35b61017a565b61063d906101c0565b9052565b61064a906101e6565b9052565b610657906105ab565b9052565b906080806106b3936106735f8201515f860190610634565b61068560208201516020860190610634565b61069760408201516040860190610634565b6106a960608201516060860190610641565b015191019061064e565b565b91906106c8905f60a0850194019061065b565b565b346106fa576106f66106e56106e03660046102c3565b61237f565b6106ed610174565b918291826106b5565b0390f35b61017a565b3461072d576107176107123660046102c3565b61252b565b61071f610174565b8061072981610284565b0390f35b61017a565b5f80fd5b90816101409103126107455790565b610732565b90565b6107568161074a565b0361075d57565b5f80fd5b9050359061076e8261074d565b565b90916060828403126107bd575f82013567ffffffffffffffff81116107b85761079e846107b5928501610736565b936107ac81602086016101d7565b93604001610761565b90565b610182565b61017e565b6107cb9061074a565b9052565b91906107e2905f602085019401906107c2565b565b34610815576108116108006107fa366004610770565b9161263a565b610808610174565b918291826107cf565b0390f35b61017a565b9060208282031261083357610830915f016101b1565b90565b61017e565b346108665761085061084b36600461081a565b612705565b610858610174565b8061086281610284565b0390f35b61017a565b6f71727de22e5e9d8baf0edac6f37da03290565b61088761086b565b90565b346108ba5761089a366004610314565b6108b66108a561087f565b6108ad610174565b918291826103d8565b0390f35b61017a565b909182601f830112156108f95781359167ffffffffffffffff83116108f45760200192600183028401116108ef57565b61042a565b610426565b610422565b9160608383031261094b57610915825f85016101b1565b926109238360208301610761565b92604082013567ffffffffffffffff81116109465761094292016108bf565b9091565b610182565b61017e565b5190565b60209181520190565b90825f9392825e0152565b601f801991011690565b61099161099a60209361099f9361098881610950565b93848093610954565b9586910161095d565b610968565b0190565b6109b89160208201915f818403910152610972565b90565b346109ef576109eb6109da6109d13660046108fe565b92919091612771565b6109e2610174565b918291826109a3565b0390f35b61017a565b34610a2457610a04366004610314565b610a20610a0f612873565b610a17610174565b918291826103d8565b0390f35b61017a565b608081830312610a6a57610a3f825f83016101d7565b92610a67610a5084602085016101d7565b93610a5e81604086016101d7565b936060016101d7565b90565b61017e565b34610aa157610a8b610a82366004610a29565b92919091612b7b565b610a93610174565b80610a9d81610284565b0390f35b61017a565b34610ad457610abe610ab93660046102c3565b612d9e565b610ac6610174565b80610ad081610284565b0390f35b61017a565b67ffffffffffffffff1690565b610aef90610ad9565b9052565b63ffffffff1690565b610b0590610af3565b9052565b9060a080610b7393610b215f8201515f860190610634565b610b3360208201516020860190610634565b610b4560408201516040860190610ae6565b610b5760608201516060860190610afc565b610b6960808201516080860190610634565b015191019061064e565b565b9190610b88905f60c08501940190610b09565b565b34610bba57610bb6610ba5610ba03660046102c3565b612f0f565b610bad610174565b91829182610b75565b0390f35b61017a565b9091606082840312610bf457610bf1610bda845f85016101d7565b93610be881602086016101d7565b936040016101d7565b90565b61017e565b34610c2857610c12610c0c366004610bbf565b916132f3565b610c1a610174565b80610c2481610284565b0390f35b61017a565b5190565b60209181520190565b60200190565b90610c4d81602093610634565b0190565b60200190565b90610c74610c6e610c6784610c2d565b8093610c31565b92610c3a565b905f5b818110610c845750505090565b909192610c9d610c976001928651610c40565b94610c51565b9101919091610c77565b610cbc9160208201915f818403910152610c57565b90565b34610cef57610ccf366004610314565b610ceb610cda6133bc565b610ce2610174565b91829182610ca7565b0390f35b61017a565b63ffffffff60e01b1690565b610d0990610cf4565b90565b610d357fda41a9794e00ddb18f1b3c615f12a80255bfb0a79706263eee63314d8f817c10610d00565b90565b610d40610d0c565b90565b610d4c90610cf4565b9052565b9190610d63905f60208501940190610d43565b565b34610d9557610d75366004610314565b610d91610d80610d38565b610d88610174565b91829182610d50565b0390f35b61017a565b60ff1690565b610da990610d9a565b9052565b9190610dc0905f60208501940190610da0565b565b34610df257610dee610ddd610dd83660046102c3565b6133df565b610de5610174565b91829182610dad565b0390f35b61017a565b5f80fd5b60401c90565b60ff1690565b610e13610e1891610dfb565b610e01565b90565b610e259054610e07565b90565b5f1c90565b67ffffffffffffffff1690565b610e46610e4b91610e28565b610e2d565b90565b610e589054610e3a565b90565b90565b90565b610e75610e70610e7a92610e5b565b610e5e565b610ad9565b90565b90565b610e94610e8f610e9992610e7d565b610e5e565b610ad9565b90565b610eb0610eab610eb592610186565b610e5e565b610186565b90565b610ec190610e9c565b90565b610ecd90610eb8565b90565b610ee4610edf610ee992610e5b565b610e5e565b61074a565b90565b5f1b90565b90610f0467ffffffffffffffff91610eec565b9181191691161790565b610f22610f1d610f2792610ad9565b610e5e565b610ad9565b90565b90565b90610f42610f3d610f4992610f0e565b610f2a565b8254610ef1565b9055565b60401b90565b90610f6768ff000000000000000091610f4d565b9181191691161790565b610f7a906105ab565b90565b90565b90610f95610f90610f9c92610f71565b610f7d565b8254610f53565b9055565b610fa990610e80565b9052565b9190610fc0905f60208501940190610fa0565b565b939094919592610fd0613407565b96610fe5610fdf5f8a01610e1b565b156105ab565b96610ff15f8a01610e4e565b80611004610ffe5f610e61565b91610ad9565b148061111e575b9061101f6110196001610e80565b91610ad9565b14806110f6575b6110319091156105ab565b90816110e5575b506110c9576110619661105661104e6001610e80565b5f8c01610f2d565b886110b7575b611671565b611069575b50565b611076905f809101610f80565b60016110ae7fc7f505b2f371ae2175ee4913f4499e1f2633a7b5936321eed1cdaeb6115181d2916110a5610174565b91829182610fad565b0390a15f611066565b6110c460015f8c01610f80565b61105c565b5f63f92ee8a960e01b8152806110e160048201610284565b0390fd5b6110f09150156105ab565b5f611038565b5061103161110330610ec4565b3b6111166111105f610ed0565b9161074a565b149050611026565b508861100b565b61113961113461113e92610e5b565b610e5e565b610186565b90565b61114a90611125565b90565b61116161115c61116692610e5b565b610eec565b6101c0565b90565b9061117a60018060a01b0391610eec565b9181191691161790565b61118d90610eb8565b90565b90565b906111a86111a36111af92611184565b611190565b8254611169565b9055565b90565b6111ca6111c56111cf926111b3565b610e5e565b6101e6565b90565b6111de620151806111b6565b90565b60a01b90565b906111fb65ffffffffffff60a01b916111e1565b9181191691161790565b61121961121461121e926101e6565b610e5e565b6101e6565b90565b90565b9061123961123461124092611205565b611221565b82546111e7565b9055565b61125861125361125d9261074a565b610e5e565b610ad9565b90565b634e487b7160e01b5f52604160045260245ffd5b9061127e90610968565b810190811067ffffffffffffffff82111761129857604052565b611260565b906112b06112a9610174565b9283611274565b565b6112bc60c061129d565b90565b906112c9906101c0565b9052565b906112d790610ad9565b9052565b6112ef6112ea6112f492610e5b565b610e5e565b610af3565b90565b9061130190610af3565b9052565b9061130f906105ab565b9052565b61131c906101c0565b90565b9061132990611313565b5f5260205260405f2090565b634e487b7160e01b5f525f60045260245ffd5b61135290516101c0565b90565b906113615f1991610eec565b9181191691161790565b61137490610e28565b90565b9061138c61138761139392611313565b61136b565b8254611355565b9055565b6113a19051610ad9565b90565b6113ae9051610af3565b90565b906113c86bffffffff000000000000000091610f4d565b9181191691161790565b6113e66113e16113eb92610af3565b610e5e565b610af3565b90565b90565b9061140661140161140d926113d2565b6113ee565b82546113b1565b9055565b61141b90516105ab565b90565b9061142a60ff91610eec565b9181191691161790565b9061144961144461145092610f71565b610f7d565b825461141e565b9055565b906114e360a060046114e9946114775f82016114715f8801611348565b90611377565b6114906001820161148a60208801611348565b90611377565b6114a9600282016114a360408801611397565b90610f2d565b6114c2600282016114bc606088016113a4565b906113f1565b6114db600382016114d560808801611348565b90611377565b019201611411565b90611434565b565b906114f591611454565b565b90565b5f5260205f2090565b634e487b7160e01b5f52603260045260245ffd5b5490565b61152481611517565b82101561153e576115366001916114fa565b910201905f90565b611503565b1b90565b9190600861156291029161155c5f1984611543565b92611543565b9181191691161790565b919061158261157d61158a93611313565b61136b565b908354611547565b9055565b90815491680100000000000000008310156115be57826115b69160016115bc9501815561151b565b9061156c565b565b611260565b6115d76115d26115dc92610e7d565b610e5e565b610d9a565b90565b906115e990611313565b5f5260205260405f2090565b61160961160461160e92610d9a565b610e5e565b610d9a565b90565b90565b90611629611624611630926115f5565b611611565b825461141e565b9055565b61163d906101c0565b9052565b61164a90610ad9565b9052565b91602061166f92949361166860408201965f830190611634565b0190611641565b565b9192909394958261169261168c6116875f611141565b610191565b91610191565b146118dd57836116b26116ac6116a75f61114d565b6101c0565b916101c0565b1480156118bb575b61189f5761178861179b9261177f6117ce965f946116e26116d9613412565b98878a01611193565b6116ef8c60048a01611193565b806117096117036116fe6111d2565b6101e6565b916101e6565b108614611896575061172661171c6111d2565b5b60048901611224565b9161177661176d8b61176861173a42611244565b61175f8a939661175660019a61174e6112b2565b9d8e016112bf565b60208c016112bf565b60408a016112cd565b6112db565b606087016112f7565b608085016112bf565b60a08301611305565b61179660018401869061131f565b6114eb565b6117b16117aa600283016114f7565b849061158e565b6117c960036117c060016115c3565b920185906115df565b611614565b6117d742611244565b6118017f0fd7b412d393b236a58dc6d2a4caa0a0689a2d45c3ec54f4d0f7ef5d26f3116c92611313565b9261181661180d610174565b9283928361164e565b0390a28061183461182e6118295f611141565b610191565b91610191565b0361183d575b50565b6118465f611141565b9061187a6118747f064d28d3d3071c5cbc271a261c10c2f0f0d9e319390397101aa0eb23c6bad90993611184565b91611184565b91611883610174565b8061188d81610284565b0390a35f61183a565b6117269061171d565b5f638baa579f60e01b8152806118b760048201610284565b0390fd5b50816118d76118d16118cc5f61114d565b6101c0565b916101c0565b146116ba565b5f63d92e233d60e01b8152806118f560048201610284565b0390fd5b90611908969594939291610fc2565b565b9061191490611313565b5f5260205260405f2090565b90565b65ffffffffffff1690565b61193a61193f91610e28565b611923565b90565b61194c905461192e565b90565b61196361195e61196892610e5b565b610e5e565b6101e6565b90565b60301c90565b61197d6119829161196b565b610e01565b90565b61198f9054611971565b90565b6119a66119a16119ab926101e6565b610e5e565b61074a565b90565b90565b6119bd6119c291610e28565b6119ae565b90565b6119cf90546119b1565b90565b906119e365ffffffffffff91610eec565b9181191691161790565b90611a026119fd611a0992611205565b611221565b82546119d2565b9055565b611a15613412565b90611a2c611a2760058401839061190a565b611920565b611a3860038201611942565b611a4a611a445f61194f565b916101e6565b14611c2f57611a5b60038201611985565b611c135742611a7d611a77611a7260038501611942565b611992565b9161074a565b10611bf75780611b44611b3d6002611a995f611b5696016119c5565b96611b375f611b24611aad600189016119c5565b611b1b611abb878b016119c5565b611b12611b09611aca42611244565b611b048891611afb611adb8b61114d565b96611af260019a611aea6112b2565b9d8e016112bf565b60208c016112bf565b60408a016112cd565b6112db565b606087016112f7565b608085016112bf565b60a08301611305565b611b32600184018b9061131f565b6114eb565b016114f7565b859061158e565b6003611b4f5f61194f565b91016119ed565b81611b8a611b847f0fc3aee7a6aa34876e00452ab44d7011e168d8d8a8cb2b630bf296cfe95429a393611313565b91611313565b91611b93610174565b80611b9d81610284565b0390a3611ba95f61114d565b90611bb342611244565b611bdd7f0fd7b412d393b236a58dc6d2a4caa0a0689a2d45c3ec54f4d0f7ef5d26f3116c92611313565b92611bf2611be9610174565b9283928361164e565b0390a2565b5f63054d178760e11b815280611c0f60048201610284565b0390fd5b5f633eadc1dd60e21b815280611c2b60048201610284565b0390fd5b5f633eadc1dd60e21b815280611c4760048201610284565b0390fd5b5f90565b60a01c90565b611c61611c6691611c4f565b611923565b90565b611c739054611c55565b90565b611c7e611c4b565b50611c926004611c8c613412565b01611c69565b90565b611c9e90610eb8565b90565b33611cbc611cb6611cb130611c95565b610191565b91610191565b03611ccc57611cca90611d0b565b565b5f63029a949d60e31b815280611ce460048201610284565b0390fd5b916020611d09929493611d0260408201965f830190610323565b0190610323565b565b611d626004611d18613412565b92611d24828501611c69565b9080611d3f611d39611d346111d2565b6101e6565b916101e6565b105f14611d9d5750611d5b611d526111d2565b5b838601611224565b9201611c69565b7f400bb7f1943ce93a4c3d0787d2f22b19cfc06b6722fcfa79744dc304950fb6e091611d98611d8f610174565b92839283611ce8565b0390a1565b611d5b90611d53565b611daf90611ca1565b565b5f90565b60018060a01b031690565b611dcc611dd191610e28565b611db5565b90565b611dde9054611dc0565b90565b611de9611db1565b50611dfd6004611df7613412565b01611dd4565b90565b5090565b5090565b5090565b6001611e18910161074a565b90565b9190811015611e2b576020020190565b611503565b35611e3a8161019d565b90565b9190811015611e4d576020020190565b611503565b35611e5c8161074d565b90565b5f80fd5b5f80fd5b5f80fd5b903590600160200381360303821215611ead570180359067ffffffffffffffff8211611ea857602001916001820236038313611ea357565b611e67565b611e63565b611e5f565b90821015611ecd576020611ec99202810190611e6b565b9091565b611503565b905090565b90825f939282370152565b909182611ef281611ef993611ed2565b8093611ed7565b0190565b9091611f0892611ee2565b90565b67ffffffffffffffff8111611f2957611f25602091610968565b0190565b611260565b90611f40611f3b83611f0b565b61129d565b918252565b606090565b3d5f14611f6557611f5a3d611f2e565b903d5f602084013e5b565b611f6d611f45565b90611f63565b9492919433611f91611f8b611f8661086b565b610191565b91610191565b14158061212d575b61211157611fa8818390611e00565b611fc4611fbe611fb9898790611e04565b61074a565b9161074a565b141580156120e2575b6120c657611fda5f610ed0565b5b80611ff8611ff2611fed858790611e00565b61074a565b9161074a565b101561207b575f8061201461200f85878691611e1b565b611e30565b6120286120238b898791611e3d565b611e52565b6120348a8a8791611eb2565b919061204a612041610174565b93849283611efd565b03925af1612060612059611f4a565b91156105ab565b612073575061206e90611e0c565b611fdb565b602081519101fd5b50925092505061208b9250611e00565b6120c17fe9cc9bbe7de1cbb097a6357ca3182909488efe8d793e25665befc064a02d10a7916120b8610174565b918291826107cf565b0390a1565b5f63512509d360e11b8152806120de60048201610284565b0390fd5b506120ee818390611e00565b61210a6121046120ff888890611e08565b61074a565b9161074a565b1415611fcd565b5f63029a949d60e31b81528061212960048201610284565b0390fd5b503361214961214361213e30611c95565b610191565b91610191565b1415611f99565b903361216c61216661216130611c95565b610191565b91610191565b0361217c5761217a916121bd565b565b5f63029a949d60e31b81528061219460048201610284565b0390fd5b90565b6121a4906105ab565b9052565b91906121bb905f6020850194019061219b565b565b6121da6121d560016121cd613412565b01839061131f565b612198565b6121e660028201610e4e565b6121f86121f25f610e61565b91610ad9565b1461224f5761220b906004849101611434565b61224a6122387fd402bd67af11c6e5168f5e5fcabee3941b7cb10f0cae0510c6af1d053008429092611313565b92612241610174565b918291826121a8565b0390a2565b5f632dc6675360e21b81528061226760048201610284565b0390fd5b9061227591612150565b565b61228160a061129d565b90565b5f90565b5f90565b5f90565b612298612277565b90602080808080866122a8612284565b8152016122b3612284565b8152016122be612284565b8152016122c9612288565b8152016122d461228c565b81525050565b6122e2612290565b90565b906122ef906101e6565b9052565b906123716123686003612304612277565b9461231b6123135f83016119c5565b5f88016112bf565b61233361232a600183016119c5565b602088016112bf565b61234b612342600283016119c5565b604088016112bf565b612362612359838301611942565b606088016122e5565b01611985565b60808401611305565b565b61237c906122f3565b90565b61239f6123a49161238e6122da565b506005612399613412565b0161190a565b612373565b90565b6123af613412565b6123cd6123c76123c26004339401611dd4565b610191565b91610191565b141580612400575b6123e4576123e290612465565b565b5f63e4e906bd60e01b8152806123fc60048201610284565b0390fd5b503361241c61241661241130611c95565b610191565b91610191565b14156123d5565b60301b90565b9061243b66ff00000000000091612423565b9181191691161790565b9061245a61245561246192610f71565b610f7d565b8254612429565b9055565b61248261247d6005612475613412565b01839061190a565b611920565b61248e60038201611942565b6124a061249a5f61194f565b916101e6565b148015612519575b6124fd576124bb90600360019101612445565b6124e57f7d6dceb0ad9e1c7d903468b0d49a3151dcb4d9f5fb0c5d0940b3ee2a7a8fd5d191611313565b906124ee610174565b806124f881610284565b0390a2565b5f633eadc1dd60e21b81528061251560048201610284565b0390fd5b5061252660038201611985565b6124a8565b612534906123a7565b565b5f90565b9291903361255761255161254c61086b565b610191565b91610191565b0361256857612565936125c3565b90565b5f63bd07c55160e01b81528061258060048201610284565b0390fd5b61258d90610e9c565b90565b61259990612584565b90565b6125a590610eb8565b90565b6125b35f8092611ed2565b0190565b6125c0906125a8565b90565b6125e192916125db9195949550610120810190611e6b565b90613624565b91806125f56125ef5f610ed0565b9161074a565b116125fe575b50565b5f809161261261260d33612590565b61259c565b9061261b610174565b9081612626816125b7565b03925af150612633611f4a565b505f6125fb565b9061264d9291612648612536565b61253a565b90565b3361266b61266561266030611c95565b610191565b91610191565b0361267b5761267990612697565b565b5f63029a949d60e31b81528061269360048201610284565b0390fd5b61269f613412565b6126b96126ae60048301611dd4565b916004849101611193565b906126ed6126e77f064d28d3d3071c5cbc271a261c10c2f0f0d9e319390397101aa0eb23c6bad90993611184565b91611184565b916126f6610174565b8061270081610284565b0390a3565b61270e90612650565b565b5f90565b919061272e816127278161273395610954565b8095611ed7565b610968565b0190565b92906127609161276e959361275360608701935f8801906107c2565b8583036020870152612714565b916040818403910152610972565b90565b939261277b611f45565b503361279661279061278b61086b565b610191565b91610191565b141580612850575b612834576127aa612710565b505f808684869085916127c76127be610174565b93849283611efd565b03925af1946127de6127d7611f4a565b96156105ab565b61282b5791929092612826866128147fe39b605d485d947e52b62c3b5028a14d5277db44425263c74171a8570715433495611184565b9561281d610174565b94859485612737565b0390a2565b85602081519101fd5b5f63029a949d60e31b81528061284c60048201610284565b0390fd5b503361286c61286661286130611c95565b610191565b91610191565b141561279e565b61287b611db1565b5061288e5f612888613412565b01611dd4565b90565b929190336128af6128a96128a430611c95565b610191565b91610191565b036128bf576128bd9361297e565b565b5f63029a949d60e31b8152806128d760048201610284565b0390fd5b5490565b90565b6128f66128f16128fb926128df565b610e5e565b610d9a565b90565b612908600a6128e2565b90565b61291f61291a61292492610d9a565b610e5e565b61074a565b90565b60ff1690565b61293961293e91610e28565b612927565b90565b61294b905461292d565b90565b634e487b7160e01b5f52601160045260245ffd5b61296b90610d9a565b60ff81146129795760010190565b61294e565b9190612988613412565b916129a2600261299c60018601879061131f565b01610e4e565b6129b46129ae5f610e61565b91610ad9565b03612b5f576129c5600284016128db565b6129de6129d86129d36128fe565b61290b565b9161074a565b1015612b43576129ed8561382a565b612a15612a0f612a09612a04600388018a906115df565b612941565b92610d9a565b91610d9a565b1015612b2757612ada92612aa55f612a92600394612a89612ac39791612a80612a778d612a72612a4442611244565b612a698a9396612a6060019a612a586112b2565b9d8e016112bf565b60208c016112bf565b60408a016112cd565b6112db565b606087016112f7565b608085016112bf565b60a08301611305565b612aa060018401889061131f565b6114eb565b612abb612ab4600283016114f7565b869061158e565b0184906115df565b612ad4612acf82612941565b612962565b90611614565b612ae342611244565b612b0d7f0fd7b412d393b236a58dc6d2a4caa0a0689a2d45c3ec54f4d0f7ef5d26f3116c92611313565b92612b22612b19610174565b9283928361164e565b0390a2565b5f634028a50d60e01b815280612b3f60048201610284565b0390fd5b5f634028a50d60e01b815280612b5b60048201610284565b0390fd5b5f632a8fa8ab60e21b815280612b7760048201610284565b0390fd5b90612b87939291612891565b565b33612ba4612b9e612b9930611c95565b610191565b91610191565b03612bb457612bb290612c6b565b565b5f63029a949d60e31b815280612bcc60048201610284565b0390fd5b612be4612bdf612be992610e7d565b610e5e565b61074a565b90565b612bf590610d9a565b5f8114612c03576001900390565b61294e565b5f90565b612c1e91612c18612c08565b9161156c565b565b60045f91612c3083808301612c0c565b612c3d8360018301612c0c565b826002820155612c508360038301612c0c565b0155565b905f03612c6657612c6490612c20565b565b611335565b612c73613412565b612c7f600282016128db565b612c92612c8c6001612bd0565b9161074a565b1115612d8257612cae612ca960018301849061131f565b612198565b612cba60028201610e4e565b612ccc612cc65f610e61565b91610ad9565b14612d6657612d1f600183612d0e612cf75f95612cf1600380612d249a0192016119c5565b906115df565b612d08612d0382612941565b612bec565b90611614565b612d17866139fd565b01849061131f565b612c54565b612d4e7fbbae765e99ce9c0728fad966eaeb385c91721c01772dfbc821cabc832db9bf4f91611313565b90612d57610174565b80612d6181610284565b0390a2565b5f632dc6675360e21b815280612d7e60048201610284565b0390fd5b5f63d2f2c18b60e01b815280612d9a60048201610284565b0390fd5b612da790612b89565b565b612db360c061129d565b90565b5f90565b5f90565b612dc6612da9565b906020808080808087612dd7612284565b815201612de2612284565b815201612ded612db6565b815201612df8612dba565b815201612e03612284565b815201612e0e61228c565b81525050565b612e1c612dbe565b90565b63ffffffff1690565b612e34612e3991610dfb565b612e1f565b90565b612e469054612e28565b90565b612e55612e5a91610e28565b610e01565b90565b612e679054612e49565b90565b90612f01612ef86004612e7b612da9565b94612e92612e8a5f83016119c5565b5f88016112bf565b612eaa612ea1600183016119c5565b602088016112bf565b612ec2612eb960028301610e4e565b604088016112cd565b612eda612ed160028301612e3c565b606088016112f7565b612ef2612ee9600383016119c5565b608088016112bf565b01612e5d565b60a08401611305565b565b612f0c90612e6a565b90565b612f2f612f3491612f1e612e14565b506001612f29613412565b0161131f565b612f03565b90565b919033612f5e612f58612f536004612f4d613412565b01611dd4565b610191565b91610191565b03612f6e57612f6c92613129565b565b5f636570ecab60e11b815280612f8660048201610284565b0390fd5b90565b612f99612f9e916101c0565b612f8a565b9052565b90565b612fb1612fb69161074a565b612fa2565b9052565b60601b90565b612fc990612fba565b90565b612fd590612fc0565b90565b612fe4612fe991610191565b612fcc565b9052565b6014939261300d602083613005829561301597612f8d565b018092612fa5565b018092612fd8565b0190565b60200190565b61303361302e6130389261074a565b610e5e565b6101e6565b90565b61304761304d916101e6565b916101e6565b019065ffffffffffff821161305e57565b61294e565b61306d60a061129d565b90565b61307a90516101e6565b90565b906130f2608060036130f8946130a05f820161309a5f8801611348565b90611377565b6130b9600182016130b360208801611348565b90611377565b6130d2600282016130cc60408801611348565b90611377565b6130ea8282016130e460608801613070565b906119ed565b019201611411565b90612445565b565b906131049161307d565b565b91602061312792949361312060408201965f830190611634565b0190610323565b565b9190613133613412565b9083613161429161315233613146610174565b94859360208501612fed565b60208201810382520382611274565b61317361316d82610950565b91613019565b209161318e600361318860058401869061190a565b01611942565b6131a061319a5f61194f565b916101e6565b036132d7576131be60026131b860018401889061131f565b01610e4e565b6131d06131ca5f610e61565b91610ad9565b036132bb5760066132659161325f61326c9461324c6132036131f14261301f565b6131fd60048701611c69565b9061303b565b986132438b939161323a8c916132315f9561322861321f613063565b995f8b016112bf565b602089016112bf565b604087016112bf565b606085016122e5565b60808301611305565b61325a60058401889061190a565b6130fa565b016114f7565b829061158e565b33916132a161329b7fe642620f9e6753ea83fa48e6674c7d6aaee91ada11891accf9bdf944f0430cb393611313565b93611184565b936132b66132ad610174565b92839283613106565b0390a3565b5f632a8fa8ab60e21b8152806132d360048201610284565b0390fd5b5f631c730b7360e31b8152806132ef60048201610284565b0390fd5b906132fe9291612f37565b565b606090565b60209181520190565b5f5260205f2090565b61332190546119b1565b90565b60010190565b9061334761334161333a846128db565b8093613305565b9261330e565b905f5b8181106133575750505090565b90919261337761337160019261336c87613317565b610c40565b94613324565b910191909161334a565b9061338b9161332a565b90565b906133ae6133a79261339e610174565b93848092613381565b0383611274565b565b6133b99061338e565b90565b6133c4613300565b506133d860026133d2613412565b016133b0565b90565b5f90565b6133ff613404916133ee6133db565b5060036133f9613412565b016115df565b612941565b90565b61340f613b1d565b90565b7f7cfc8294c1be3fa32b08d50f0668cc2726e1306f195499e2d5283b8967b03fef90565b5090565b90565b61345161344c6134569261343a565b610e5e565b61074a565b90565b6134636001612bd0565b90565b5f80fd5b5f80fd5b9093929384831161348e578411613489576001820201920390565b61346a565b613466565b906134a16134a89183613436565b91356101c0565b90602081106134b6575b5090565b6134c8905f1990602003600802611543565b165f6134b2565b91565b5f80fd5b5f80fd5b5f80fd5b909291926134f36134ee82611f0b565b61129d565b9381855260208501908284011161350f5761350d92611ed7565b565b6134da565b9080601f830112156135325781602061352f933591016134de565b90565b610422565b91909160c0818403126135ea5761354e60c061129d565b925f82013567ffffffffffffffff81116135e5578161356e918401613514565b5f85015260208201359167ffffffffffffffff83116135e057613596826135d9948301613514565b60208601526135a88260408301610761565b60408601526135ba8260608301610761565b60608601526135cc82608083016101d7565b608086015260a0016101d7565b60a0830152565b6134d6565b6134d6565b6134d2565b9060208282031261361f575f82013567ffffffffffffffff811161361a576136179201613537565b90565b610182565b61017e565b919061362e612536565b5061363a838290613436565b61364d613647602061343d565b9161074a565b106137515761369761369261368261367c86855f90613676613670602093610ed0565b9261343d565b9261346e565b90613493565b600161368c613412565b0161131f565b612198565b916136ad6136a760048501612e5d565b156105ab565b613742576136e36136db6136d56137109461371897906136cd602061343d565b90809261346e565b906134cf565b8101906135ef565b906136ef5f85016119c5565b6136fb600186016119c5565b905f9261370a60028801612e3c565b94613ccc565b9290156105ab565b6137355760026137299291016113f1565b6137325f610ed0565b90565b505061373f613459565b90565b5050505061374e613459565b90565b50505061375c613459565b90565b90565b61377661377161377b9261375f565b610e5e565b610d9a565b90565b61378790610e9c565b90565b6137939061377e565b90565b61379f90610eb8565b90565b60e01b90565b6137b181610d9a565b036137b857565b5f80fd5b905051906137c9826137a8565b565b906020828203126137e4576137e1915f016137bc565b90565b61017e565b91906137fc905f60208501940190611634565b565b613806610174565b3d5f823e3d90fd5b61382261381d61382792610e5b565b610e5e565b610d9a565b90565b906138336133db565b916138465f613840613412565b01611dd4565b8061386161385b6138565f611141565b610191565b91610191565b14613932576138a49161387d61387860209361378a565b613796565b613899631a12c9d161388d610174565b958694859384936137a2565b8352600483016137e9565b03915afa80915f92613902575b50155f146138d1575060016138c257565b90506138ce6005613762565b90565b909150806138e76138e15f61380e565b91610d9a565b115f146138f2575b90565b506138fd6005613762565b6138ef565b61392491925060203d811161392b575b61391c8183611274565b8101906137cb565b905f6138b1565b503d613912565b505090506139406005613762565b90565b61394c816128db565b8210156139665761395e60019161330e565b910201905f90565b611503565b1c90565b61397f906008613984930261396b565b6119ae565b90565b90613992915461396f565b90565b6139a46139aa9193929361074a565b9261074a565b82039182116139b557565b61294e565b634e487b7160e01b5f52603160045260245ffd5b6139d781611517565b80156139f85760019003906139f56139ef838361151b565b90612c0c565b55565b6139ba565b613a05613412565b613a11600282016128db565b613a1a5f610ed0565b5b80613a2e613a288461074a565b9161074a565b1015613ac957613a4b613a45600285018390613943565b90613987565b613a5d613a57866101c0565b916101c0565b14613a7057613a6b90611e0c565b613a1b565b613ac6935091613abb613ac193613ab5613aac613aa6600296613aa088880191613a9a6001612bd0565b90613995565b90613943565b90613987565b91858501613943565b9061156c565b016114f7565b6139ce565b5b565b50505050613ac7565b90565b613ae9613ae4613aee92613ad2565b610eec565b6101c0565b90565b613b1a7ff0c57e16840df040f15088dc2f81fe391c3923bec73e23a9662efc9c229c6a00613ad5565b90565b613b25612c08565b50613b2e613af1565b90565b5f90565b90565b613b4c613b47613b5192613b35565b610e5e565b61074a565b90565b613b5e6025613b38565b90565b90613b6b82610950565b811015613b7d57600160209102010190565b611503565b90565b613b99613b94613b9e92613b82565b610e5e565b61074a565b90565b60ff60f81b1690565b613bb49051613ba1565b90565b90565b613bce613bc9613bd392613bb7565b610e5e565b61074a565b90565b90565b613bed613be8613bf292613bd6565b610e5e565b61074a565b90565b90565b613c0c613c07613c1192613bf5565b610e5e565b61074a565b90565b90565b613c23613c2891613ba1565b613c14565b9052565b92613c586001613c6094613c508288613c48829b9a8399613c17565b018092613c17565b018092613c17565b018092613c17565b0190565b613c6e9051610cf4565b90565b613c8b613c86613c8083610950565b92613019565b613c64565b9060048110613c99575b5090565b613cb19063ffffffff60e01b90600403600802611543565b165f613c95565b613cc4613cc99161016e565b6113d2565b90565b9391959495929092613cdc612710565b50613ce5613b31565b50613cf25f860151610950565b613d0b613d05613d00613b54565b61074a565b9161074a565b10613e4257613dc8613dc3613d35613d305f890151613d2a6021613b85565b90613b61565b613baa565b613dbe613d57613d525f8b0151613d4c6022613bba565b90613b61565b613baa565b91613daf8a613d9a613d955f613d82613d7d82860151613d776023613bd9565b90613b61565b613baa565b930151613d8f6024613bf8565b90613b61565b613baa565b90613da3610174565b95869460208601613c2c565b60208201810382520382611274565b613c71565b613cb8565b9680613ddc613dd65f6112db565b91610af3565b1180613e28575b9081613e0b575b50613e0157613dfd949390919293613f07565b9190565b50505050505f9190565b9050613e20613e1a8992610af3565b91610af3565b11155f613dea565b5087613e3c613e365f6112db565b91610af3565b11613de3565b505050505090505f90613e545f6112db565b90565b60f81c90565b613e69613e6e91613e57565b6115f5565b90565b613e7b60016115c3565b90565b90565b613e95613e90613e9a92613e7e565b610e5e565b610d9a565b90565b613ea76004613e81565b90565b613eb4905161074a565b90565b613edc613ed392602092613eca81610950565b94858093611ed2565b9384910161095d565b0190565b613ee991613eb7565b90565b613efc613f039160209493613eb7565b8092612f8d565b0190565b929193613f12612710565b50613f1f5f850151610950565b613f38613f32613f2d613b54565b61074a565b9161074a565b106140e057613f64613f5f613f5a5f870151613f54602061343d565b90613b61565b613baa565b613e5d565b9081613f6e613e71565b16613f81613f7b5f61380e565b91610d9a565b146140d65790816140b2575b506140aa57613fb2613fb891602085015190613fab60408701613eaa565b909161419f565b156105ab565b6140a357613fdf613fd96020840151613fd360608601613eaa565b9061438b565b156105ab565b61409c5760205f613ffe82850151613ff5610174565b91829182613ee0565b039060025afa156140975760205f6140556140198251610eec565b6140448387015161403661402b610174565b938492888401613eec565b868201810382520382611274565b61404c610174565b91829182613ee0565b039060025afa156140925761408f9261406e5f51610eec565b9261408760a061408060808401611348565b9201611348565b91929361452b565b90565b6137fe565b6137fe565b5050505f90565b5050505f90565b505050505f90565b90506140bc613e9d565b166140cf6140c95f61380e565b91610d9a565b145f613f8d565b5050505050505f90565b50505050505f90565b601160f91b90565b6140fa9061074a565b5f1981146141085760010190565b61294e565b369037565b9061413761411f83611f2e565b9260208061412d8693611f0b565b920191039061410d565b565b61414861414e9193929361074a565b9261074a565b820180921161415957565b61294e565b61417861417361416d83610950565b92613019565b611348565b9060208110614186575b5090565b614198905f1990602003600802611543565b165f614182565b919290926141ab612710565b50835b806141c96141c36141be87610950565b61074a565b9161074a565b10806142da575b156141e3576141de906140f1565b6141ae565b92909192806142026141fc6141f785610950565b61074a565b9161074a565b10156142d157614213908590613995565b9261421d84614112565b926142275f610ed0565b5b8061423b6142358861074a565b9161074a565b101561427c576142779061426261425d866142578b8590614139565b90613b61565b613baa565b614271879183905f1a92613b61565b53611e0c565b614228565b50935093505061428b906149f5565b61429481610950565b6142a76142a1602061343d565b9161074a565b036142cb576142c16142bb6142c79261415e565b926101c0565b916101c0565b1490565b50505f90565b50505090505f90565b506142ee6142e9858390613b61565b613baa565b6142ff6142f96140e9565b91613ba1565b14156141d0565b67ffffffffffffffff811161432457614320602091610968565b0190565b611260565b9061433b61433683614306565b61129d565b918252565b5f7f776562617574686e2e6765740000000000000000000000000000000000000000910152565b614371600c614329565b9061437e60208301614340565b565b614388614367565b90565b90614394612710565b5061439d614380565b906143b1816143ab84610950565b90614139565b6143cb6143c56143c086610950565b61074a565b9161074a565b11614460576143d95f610ed0565b5b806143f56143ef6143ea86610950565b61074a565b9161074a565b1015614457576144186144138561440d858590614139565b90613b61565b613baa565b61443c61443661443161442c878690613b61565b613baa565b613ba1565b91613ba1565b0361444f5761444a90611e0c565b6143da565b505050505f90565b50505050600190565b5050505f90565b60206144a99461449982809998959661449182876144896144a199839c612f8d565b018092612f8d565b018092612f8d565b018092612f8d565b018092612f8d565b0190565b90565b6144c46144bf6144c9926144ad565b610e5e565b610186565b90565b6144d5906144b0565b90565b6144e36101006144cc565b90565b905051906144f38261074d565b565b9060208282031261450e5761450b915f016144e6565b90565b61017e565b73c2b78104907f722dabac4c69f826a522b2754de490565b926145589192946145679461453e612710565b50939591909161454c610174565b96879560208701614467565b60208201810382520382611274565b5f806145716144d8565b83602081019051915afa614583611f4a565b9080614642575b61461057505f809161459a614513565b90602081019051915afa6145ac611f4a565b90806145ed575b6145bc57505f90565b6145d69060206145cb82610950565b8183010191016144f5565b6145e96145e36001612bd0565b9161074a565b1490565b506145f781610950565b61460a614604602061343d565b9161074a565b146145b3565b61462b9150602061462082610950565b8183010191016144f5565b61463e6146386001612bd0565b9161074a565b1490565b5061464c81610950565b61465f614659602061343d565b9161074a565b1461458a565b61467961467461467e92613e7e565b610e5e565b61074a565b90565b634e487b7160e01b5f52601260045260245ffd5b6146a16146a79161074a565b9161074a565b9081156146b2570690565b614681565b90565b6146ce6146c96146d3926146b7565b610e5e565b61074a565b90565b6146e56146eb9193929361074a565b9261074a565b916146f783820261074a565b92818404149015171561470657565b61294e565b61471761471d9161074a565b9161074a565b908115614728570490565b614681565b90565b61474461473f6147499261472d565b610e5e565b610d9a565b90565b90565b61476361475e6147689261474c565b610e5e565b610d9a565b90565b90565b61478261477d6147879261476b565b610e5e565b610d9a565b90565b90565b6147a161479c6147a69261478a565b610e5e565b610d9a565b90565b90565b6147c06147bb6147c5926147a9565b610e5e565b610d9a565b90565b90565b6147df6147da6147e4926147c8565b610e5e565b610d9a565b90565b90565b6147fe6147f9614803926147e7565b610e5e565b610d9a565b90565b90565b61481d61481861482292614806565b610e5e565b610d9a565b90565b90565b61483c61483761484192614825565b610e5e565b610d9a565b90565b90565b61485b61485661486092614844565b610e5e565b610d9a565b90565b61486f61487591610d9a565b91610d9a565b90039060ff821161488257565b61294e565b90565b61489e6148996148a392614887565b610e5e565b610d9a565b90565b6148b26148b891610d9a565b91610d9a565b019060ff82116148c457565b61294e565b90565b6148e06148db6148e5926148c9565b610e5e565b610d9a565b90565b90565b6148ff6148fa614904926148e8565b610e5e565b610d9a565b90565b6149269061492061491a61492b94610d9a565b9161074a565b90611543565b61074a565b90565b61494261493d614947926148e8565b610e5e565b61074a565b90565b90565b61496161495c6149669261494a565b610e5e565b61074a565b90565b6149889061498261497c61498d9461074a565b9161074a565b9061396b565b61074a565b90565b6149a461499f6149a99261074a565b610e5e565b610d9a565b90565b60f81b90565b6149c66149c16149cb92610d9a565b6149ac565b613ba1565b90565b6149ed906149e76149e16149f29461074a565b9161074a565b90611543565b61074a565b90565b906149fe611f45565b50614a0882610950565b614a1a614a145f610ed0565b9161074a565b14614e2057614a2882610950565b614a3c81614a366004614665565b90614695565b614a4e614a485f610ed0565b9161074a565b03614dea575b614a8e614a7e614a6e83614a6860036146ba565b906146d6565b614a786004614665565b9061470b565b91614a8885610950565b90613995565b80614aa1614a9b5f610ed0565b9161074a565b11614dd9575b50614ab181614112565b614aba5f610ed0565b614ac35f610ed0565b92614acd5f610ed0565b614ad65f610ed0565b945b85614af3614aed614ae88b610950565b61074a565b9161074a565b1015614dd057614b14614b0f614b0a8a8990613b61565b613baa565b613e5d565b614b1c6133db565b5080614b31614b2b6041614730565b91610d9a565b101580614db4575b5f14614c525790614b75614b6f614b5d614b8794614b576041614730565b90614863565b925b614b6960066148eb565b90614907565b9161290b565b1791614b81600661492e565b90614139565b9485614b9c614b96600861494d565b9161074a565b1015614bb4575b614bad905b611e0c565b9490614ad8565b9094614bcd614bad91614bc7600861494d565b90613995565b9584614be1614bdb8661074a565b9161074a565b10614c17575b614c0e614bfe6001614bf98a91612bd0565b6149ce565b614c086001612bd0565b90613995565b16919050614ba3565b614c32614c2d614c28838a90614969565b614990565b6149b2565b94614c4c879196614c42886140f1565b97905f1a92613b61565b53614be7565b80614c66614c60606161476e565b91610d9a565b101580614d98575b5f14614cac5790614b75614b6f614ca5614c95614b8795614c8f606161476e565b90614863565b614c9f601a6148cc565b906148a6565b925b614b5f565b80614cc0614cba60306147ac565b91610d9a565b101580614d7c575b5f14614d065790614b75614b6f614cff614cef614b8795614ce960306147ac565b90614863565b614cf9603461488a565b906148a6565b925b614ca7565b80614d1a614d14602d6147ea565b91610d9a565b145f14614d3d5750614b8790614b75614b6f614d36603e614847565b925b614d01565b614d50614d4a605f614809565b91610d9a565b145f14614d7157614b8790614b75614b6f614d6b603f614828565b92614d38565b9094614bad90614ba8565b5080614d91614d8b60396147cb565b91610d9a565b1115614cc8565b5080614dad614da7607a61478d565b91610d9a565b1115614c6e565b5080614dc9614dc3605a61474f565b91610d9a565b1115614b39565b50505050925050565b90614de49190613995565b5f614aa7565b614e1b90614e156004614e10614e0a84614e046004614665565b90614695565b91614665565b613995565b90614139565b614a54565b9050614e33614e2e5f610ed0565b614112565b9056fea164736f6c634300081e000a","linkReferences":{}},"methodIdentifiers":{"ENTRY_POINT()":"94430fa5","MODULE_ID()":"ed2f21f5","addCredential(bytes32,bytes32,bytes32,bytes32)":"caa32417","cancelRecovery(bytes32)":"631fec7f","completeRecovery(bytes32)":"1272c596","execute(address,uint256,bytes)":"b61d27f6","executeBatch(address[],uint256[],bytes[])":"47e1da2a","factory()":"c45a0155","getCredential(bytes32)":"d1be4883","getCredentialIds()":"e6636f3f","getOrgCredentialCount(bytes32)":"f6f53056","getRecoveryRequest(bytes32)":"5ea3ec76","guardian()":"452a9320","initialize(address,bytes32,bytes32,bytes32,bytes32,address,uint48)":"0d7a5b39","initiateRecovery(bytes32,bytes32,bytes32)":"d6d484a7","recoveryDelay()":"3758ca7a","removeCredential(bytes32)":"d0c8a792","setCredentialActive(bytes32,bool)":"5bf526cb","setGuardian(address)":"8a0dac4a","setRecoveryDelay(uint48)":"3d8d7b0b","validateUserOp((address,uint256,bytes,bytes,bytes32,uint256,uint256,uint256,bytes,bytes),bytes32,uint256)":"8803e451"},"id":51}